:10000000D0C104C2E9C1E8C1E7C1E6C1E5C1E4C1AC
:10001000E3C101C4E1C1E0C1DFC1DEC1DDC1DCC1BA
:10002000DBC174C973C972C971C99EC9CCC96EC913
:100030006DC9A8C9A7C9A6C969C968C967C9EEC9F0
:10004000EDC9ECC9EBC95FCA07CBE8C9E7C977CAF4
:1000500076CA75CAE3C9E2C9E1C990CA8FCA00006D
:100060005500AA0000015501AA0100025502AA028A
:1000700000035503AA0300045504AA04000555050E
:10008000AA0500065506AA0600075507AA07000894
:100090005508AA0800095509AA09000A550AAA0A1A
:1000A000000B550BAA0B000C550CAA0C000D550D9E
:1000B000AA0D000E550EAA0E000F550FAA0F001024
:1000C0005510AA1000115511AA1100125512AA12AA
:1000D00000135513AA1300145514AA14001555152E
:1000E000AA1500165516AA1600175517AA170018B4
:1000F0005518AA1800195519AA19001A551AAA1A3A
:10010000001B551BAA1B001C551CAA1C001D551DBD
:10011000AA1D001E551EAA1E001F551FAA1F002043
:100120005520AA2000215521AA2100225522AA22C9
:1001300000235523AA2300245524AA24002555254D
:10014000AA2500265526AA2600275527AA270028D3
:100150005528AA2800295529AA29002A552AAA2A59
:10016000002B552BAA2B002C552CAA2C002D552DDD
:10017000AA2D002E552EAA2E002F552FAA2F003063
:100180005530AA3000315531AA3100325532AA32E9
:1001900000335533AA3300345534AA34003555356D
:1001A000AA3500365536AA3600375537AA370038F3
:1001B0005538AA3800395539AA39003A553AAA3A79
:1001C000003B553BAA3B003C553CAA3C003D553DFD
:1001D000AA3D003E553EAA3E003F553FAA3F03EDD3
:1001E0004EEB9DE9EEE743E69BE4F6E254E1B5DF32
:1001F00019DE80DCEADA57D9C7D739D6AFD427D38E
:10020000A2D120D0A1CE24CDAACB33CABFC84DC71E
:10021000DEC572C408C3A1C13CC0DABE7ABD1DBC34
:10022000C3BA6BB915B8C2B672B524B4D8B28FB11F
:1002300048B003AFC1AD81AC43AB07AACEA897A726
:1002400063A630A500A4D2A2A6A17CA0559F2F9E94
:100250000C9DEB9BCC9AAF9994987B9764964F95A5
:100260003C942B931C920E910390FA8EF38DED8C9F
:10027000EA8BE88AE889EA88EE87F486FB850485BC
:100280000F841C832B823B814D80617F767E8D7D28
:10029000A67CC07BDC7AFA791A793B785D77817627
:1002A000480600006C050000360700003607000015
:1002B000EE0600007B040000D6060000D606000013
:1002C000B2040000EC0400002C050000A9060000A8
:1002D000A9060000A90600001C0600001C0600007C
:1002E00009026500020103000F090400000001017A
:1002F00000000924010001090001010904010002B4
:10030000010300000724010001410006240201014D
:100310000006240202020009240301030102010075
:100320000924030204010101000905010308000179
:1003300000000525010101090581030800010000F5
:1003400005250101031201100100000008C016E498
:1003500005000101020301140375004D004900442A
:10036000004900200031002E0030000C0375004DC4
:1003700000490044004900260353006500690073EA
:10038000006D0069006300200049006E0064007584
:1003900000730074007200690065007300040309B3
:1003A000040011241FBECFE5D2E0DEBFCDBF10E0B8
:1003B000A0E6B0E0E8E2FDE102C005900D92A236B1
:1003C000B107D9F711E0A2E6B0E001C01D92A13358
:1003D000B107E1F74BD2E2CB13CEA82FB92F80E0C3
:1003E00090E041E050EA609530E009C02D9182270D
:1003F0009795879510F084279527305EC8F36F5F37
:10040000A8F30895EADF8D939D930895CF93CFB716
:10041000CF93DF93C395C99BE9F7C99B11C0C99BD3
:100420000FC0C99B0DC0C99B0BC0C99B09C0C99B0C
:1004300007C0C99B05C0C99B03C0C99B01C086C03A
:100440006F93C0911401DD27C55EDE4F2F9320E42A
:1004500000C065E0C99B03C02F916F91DECF0F9361
:100460001F934F9345E55F9355E53F933BE011E0C4
:1004700009B303702EC06A95C9F03150D8F109B3A1
:10048000037001130BC008942795299320E4555558
:1004900000F46A9569F701E069B30BC0102F66E0BC
:1004A0002695299320E4555518F3E2CF0FEF69B351
:1004B0000000162F455500F0404066E013700030F4
:1004C000E2F221F0000009B3037003C009B3037026
:1004D000A9F0011309C00894279568F200C06A9535
:1004E000A9F700E069B3E5CF102F66E0269528F262
:1004F0000000ECCF10E41ABF00271CC03B50319520
:10050000C31BD04010E41ABF0881033C21F10B3417
:1005100011F1209112011981110F1213EDCF4A81AF
:10052000441F093669F10D3211F0013E29F74F7071
:1005300009F0042F009319013F915F914F911F9192
:100540000F912F916F91CAB7C6FD64CFDF91CF9104
:10055000CFBFCF91189520911901222369F31091F3
:100560001701112381F5343082F130931701209364
:100570001301109114013BE0311B3093140125C08D
:10058000009117010130FCF40AE54F7049F43091F5
:10059000610034FD1BC000936100CBEFD0E01AC0B6
:1005A0003091060134FD12C000930601C7E0D1E08E
:1005B00011C0052710E000C00BBB19C0052710E0D3
:1005C000221F00C01DC04AE502C032ED432FC4E126
:1005D000D0E032E01AB31360D99A0BB31ABB53E0E0
:1005E00020E869E420FF05270BBB2795179500C07D
:1005F00000001C3FF0F66695A8F7A1F720FF05273D
:100600000BBB2795179500001C3FC0F629913A9522
:1006100041F70C7F10911801110F0BBBC651D04050
:1006200011F01093120110E41ABF02601AB31C7F7C
:10063000402F4C7F55E05A95F1F70BBB1ABB4BBBD3
:100640007BCFA0E0B0E0E6E2F3E011CBFC01C0819B
:10065000D0E025E0CC0FDD1F2A95E1F78C016E017B
:10066000F2E1CF0ED11CE12CF12CF80161817281F5
:10067000CE01A4DAF80181819281E80EF91E22965A
:100680000E5F1F4FCC15DD0581F7B701CE0196DA5D
:10069000CDB7DEB7E8E007CBA0E0B0E0E1E5F3E0FE
:1006A000E4CA7C01FC016083062F10E035E0000FF6
:1006B000111F3A95E1F75801F2E1AF0EB11CE801C4
:1006C000C12CD12CCE0175DAF701E01BF10BEC0F38
:1006D000FD1F92838183C80ED91E2296CA15DB05A1
:1006E00089F7CE0166DA8C159D0571F0F70180E07F
:1006F00090E0928381838C509E4F3296843921E121
:100700009207B9F7C7019DDFCDB7DEB7EAE0C9CAE6
:100710008F929F92AF92BF92CF92DF92EF92FF9211
:10072000CF93DF939B013251213048E1340714F01D
:1007300020E038E137FF02C020E030E040E0203C1C
:10074000310524F04F5F205C3109F9CF220F331FB0
:10075000225A3F4FF901A591B491242F30E03595ED
:10076000279535952795F901EE0FFF1FE80FF91F23
:10077000C181D281F9013196EE0FFF1FE80FF91FF9
:10078000618172816C1B7D0B80E090E0242F2370CF
:1007900030E040E050E0EEE0220F331F441F551FD1
:1007A000EA95D1F72A0F3B1F411D511D3BDA5A0133
:1007B000CE018A0D9B1DDF91CF91FF90EF90DF90CE
:1007C000CF90BF90AF909F908F9008959FB921E1F7
:1007D0002DB993E19DB92DB99DB92DB99DB92DB90B
:1007E0009DB92DB99DB92DB99DB92DB99DB92DB919
:1007F0009DB98FB92DB99DB92DB99DB92DB99DB9A7
:100800002DB99DB92DB99DB92DB99DB92DB99DB9F8
:100810002DB99DB908951F920F920FB60F92112412
:100820008F93809162008F5F809362008F910F9011
:100830000FBE0F901F901895D69ADE98D39ADB982A
:10084000D79ADF9AD59AD49A83E690E09ED483E62D
:1008500090E09BD782E080BF84E083BF8DE486BFB9
:1008600089B7826089BF82E18EBD0895E5DFA1D797
:1008700080916300882391F183E690E0E9D3C091F1
:10088000F100D091F2008091EF009091F000DF989C
:1008900090619CDFDF9ADF98CE01906997DFDF9A45
:1008A0008091F5009091F600009749F020E82FBD67
:1008B00095BD84BD969587959BBD8ABD08C01FBC1C
:1008C0008091F300882311F0DE9A01C0DE988091B8
:1008D000F400882311F0DB9A01C0DB98809162005C
:1008E000882329F28091620081508093620083E620
:1008F00090E040D3BCCFFC01E457FF4FDC01A75987
:10090000BF4F2C9130E045E0220F331F4A95E1F7AD
:1009100031832083FC01E257FF4FDC01A659BF4F12
:100920002C9130E055E0220F331F5A95E1F73183C7
:100930002083FC01E057FF4FDC01A559BF4F21E0A8
:100940003C91303408F420E02083FC01EF56FF4F47
:10095000DC01A459BF4F21E08C91803408F420E0E1
:1009600020830895FC01E457FF4FDC01A058BF4FDE
:100970002C9130E065E0220F331F6A95E1F7318357
:100980002083FC01E257FF4FDC01AD57BF4F2C9194
:1009900030E075E0220F331F7A95E1F73183208331
:1009A000FC01E057FF4FDC01AF57BF4F41E02D91F5
:1009B0003C912F3F3F4F09F440E04083FC01EF564C
:1009C000FF4FDC01AC57BF4F21E08D919C91019608
:1009D00009F420E020830895FC01EF57FF4F2081A8
:1009E00031812A30310518F42FEF3FE002C020E0BA
:1009F00030E0FC01E457FF4F31832083FC01EC57CA
:100A0000FF4F208131812A30310518F42FEF3FE06C
:100A100002C020E030E0FC01E257FF4F3183208329
:100A2000FC01E057FF4F41E0DC01A957BF4F2D917A
:100A30003C912A30310508F040E04083FC01EF563C
:100A4000FF4FDC01A657BF4F21E08D919C910A9783
:100A500008F020E020830895FC01EF57FF4F20812C
:100A600031812F3F3F4F19F02FEF3FE002C020E0D0
:100A700030E0FC01E457FF4F31832083FC01EC5749
:100A8000FF4F208131812F3F3F4F19F02FEF3FE083
:100A900002C020E030E0FC01E257FF4F31832083A9
:100AA000FC01E057FF4F41E0DC01A957BF4F2D91FA
:100AB0003C912F3F3F4F09F440E04083FC01EF564B
:100AC000FF4FDC01A657BF4F21E08D919C9101960D
:100AD00009F420E020830895A0E0B0E0E1E7F5E02C
:100AE000BEC8EC0189A58E010F561F4F882309F45B
:100AF0009DC08FAD90E063E070E081D85E0129E297
:100B0000A20EB11C8A0D9B1DFC01E180F12CF69414
:100B1000FE2CEE24F794E7946E01F5E6CF0ED11C7F
:100B2000F6016081718195E0759567959A95E1F779
:100B30006E0D7F1DCE010296EBDDFE01E457FF4FE7
:100B4000918380838FAD90E063E070E058D88A0D88
:100B50009B1DFC01828190E025E0880F991F2A955A
:100B6000E1F7FE01E257FF4F9183808381E0FE01B0
:100B7000EF58FF4F9081911180E0F8018083F601DA
:100B800020813181B5E035952795BA95E1F72E0D95
:100B90003F1D385037FF02C03A5FFCCF10E02115EF
:100BA000F6E03F0718F036501F5FF9CFA9015695C0
:100BB0004795569547955695479556954795222FB3
:100BC0002295207F440F551FFA01E252FE4F4590B7
:100BD0005490612C712C40525E4FFA018591949192
:100BE00073016201C81AD90AE108F108C701B60108
:100BF00030E040E050E016D849015A016B017C0119
:100C0000892C9A2CAB2CBB24D301C20188199909D9
:100C1000AA09BB09115028F0B695A7959795879515
:100C2000F9CFCE56DF4F9983888302C0F801108236
:100C3000CDB7DEB7E0E12FC8CF93DF93EC01FC0125
:100C4000E057FF4F81E08083FE01EF56FF4F808326
:100C500068A570E07695762F662777956795CE0123
:100C6000029656DDFE01E457FF4F9183808368A50D
:100C700070E07695762F662777956795CE01459635
:100C800047DDC257DF4F99838883DF91CF91089565
:100C9000A0E0B0E0EDE4F6E0EAC7EC0189A59E0132
:100CA0002F563F4F79018E0100571F4F882309F4BB
:100CB00048C06E0139E2C30ED11C8FAD90E063E0F5
:100CC00070E09DD78C0D9D1DDC0111966C9170E03C
:100CD0007695762F662777956795FE01EB59FF4F3E
:100CE00020813181E5E035952795EA95E1F7620F9E
:100CF000731FCE0102960CDDFE01E457FF4F918376
:100D00008083FE01E257FF4F8FAD90E063E070E01B
:100D100076D78C0D9D1DDC0112968C9190E0A5E09C
:100D2000880F991FAA95E1F791838083CF58DF4FF1
:100D300081E09881911180E0F7018083D8018C9344
:100D400004C0F9011082D8011C92CDB7DEB7E8E0EB
:100D5000AAC7CF93DF93EC019BDFFE01E057FF4F63
:100D60008081882319F08FEF9FE002C080E090E03F
:100D7000DE01A257BF4F8D939C9321E0DE01AF5758
:100D8000BF4F8D919C910A9708F020E02083FE01CF
:100D9000EF56FF4FCC57DF4F21E0888199810A97AA
:100DA00008F020E02083DF91CF910895CF93DF9367
:100DB000EC016EDFFE01E257FF4F8981C80FD11DA4
:100DC000CD59DF4F888190E0B5E0880F991FBA9523
:100DD000E1F791838083DF91CF910895A0E0B0E0A7
:100DE000E3EFF6E040C77C01EC018C010E5F1F4F82
:100DF00058016C01FE01E258FF4F6081CE0180571F
:100E00009F4F4C016F3F19F170E07695762F662762
:100E100077956795F701EB59FF4F8081918125E028
:100E2000959587952A95E1F7680F791FC80170DCC1
:100E3000F601E457FF4F9183808381E0FE01EF5874
:100E4000FF4F9081911180E0F401808302C0FC018A
:100E5000108221960D5E1F4FF2E0CF0ED11CCA15F5
:100E6000DB0541F6CDB7DEB7ECE019C7A0E0B0E096
:100E7000EBE3F7E0F8C64C01EC01A9967C016C01AC
:100E800000E010E08881970120573F4F59018823E7
:100E900079F18E8990E063E070E0B1D68C0F9D1FF0
:100EA000FC01618170E07695762F662777956795CE
:100EB000F601EB59FF4F8081918145E0959587952B
:100EC0004A95E1F7680F791FC4010296800F911FC0
:100ED0001FDCF601E457FF4F9183808381E0F70127
:100EE000EF58FF4F9081911180E0F501808302C09F
:100EF000F90110826E96F2E0CF0ED11C0D5E1F4FED
:100F00002FEFE21AF20A0632110509F0BBCFCDB776
:100F1000DEB7ECE0C4C6FC01218135EF320F33307F
:100F200040F5683FD1F4EC56FF4F3081311108C0D5
:100F3000DC01A058BF4F12961C921E9211971C9272
:100F400081E0830F80832B3099F02C3019F48330AB
:100F500080F00EC0863060F408956A3F51F4FC01C1
:100F6000EC56FF4F1082FC01ED57FF4F12821182A9
:100F700010820895FC01818188508630C0F480E0A1
:100F800090E0DF01A80FB91FAF57BF4F2D913C91E3
:100F900011972F3F4FEF340721F02F5F3F4F2D93D5
:100FA0003C9303968C30910561F781E08083DF01EB
:100FB000AF58BF4F8C91882321F081508C9381E0F2
:100FC0008083DF01AE58BF4F8C91882321F0815080
:100FD0008C9381E08083089530E03695322F22276C
:100FE00037952795240F311D41E050E0633011F013
:100FF00040E050E0440F551F480F591FFA01EB59CC
:10100000FF4F30523183208308953FEF340F343047
:1010100038F4840F911DFC01E859FF4F2083089597
:101020003CEF360F373098F0443489F4635041E098
:1010300050E0683010F040E050E0840F951FFC0154
:10104000ED58FF4F81E0203408F480E0808308955C
:10105000A4E0B0E0EDE2F8E00EC68C01FC01618195
:1010600070E0660F771F660F771F60567D4F44E074
:1010700050E0CE01019694D5F8018181813021F0B4
:10108000EE56FF4F118210822B813C81E981FA815B
:10109000C9019595879520FF0AC0D801A80FB91FEF
:1010A0000D90BC91A02DAE0FBF1FED91FC91800F54
:1010B000911F0995F80110822496E4E0F8C5DC013F
:1010C0001C92FC01349622E1DF011D922A95E9F77A
:1010D000FC01789626E0DF011D922A95E9F7FC01D4
:1010E000168A20E030E0FC01E20FF31F4FEF41834E
:1010F0002D5F3F4F25313105B1F70895CF93DF9331
:10110000EC018996DCDFCE01895B9F4FD8DFFE01C1
:10111000EF57FF4F8FEF9FEF91838083FE01EC57D6
:10112000FF4F91838083FE01E957FF4F91838083B6
:10113000FE01E657FF4F91838083FE01EB59FF4F7D
:1011400011821082FE01E959FF4F11821082FE01C7
:10115000EC56FF4F1082FE01ED58FF4F1082FE014A
:10116000EC58FF4F1082FE01E659FF4F1082FE013E
:10117000E759FF4F1082FE01E459FF4F1082C55915
:10118000DF4F1882DF91CF910895CF93DF93EC0169
:1011900019828B589F4FFC01108615D3FE01E3582E
:1011A000FF4F82E0808360E0CE01029675DA61E055
:1011B000CE01459671DAFE01EF57FF4F8FEF9FEF9B
:1011C00091838083FE01EC57FF4F91838083FE0162
:1011D000E957FF4F91838083FE01E657FF4F9183CC
:1011E000808381E088838CE388A7CE0187DFDF914D
:1011F000CF9108950F931F93CF93DF93FC01062F98
:10120000168940E0112309F46BC0A12FB0E0CD0195
:1012100063E070E0F4D4EF01C80FD91F89819D010C
:101220002F5F3F4F801751F0C90163E070E0E7D4B2
:10123000DF01A80FB91F412F1C91E4CF442399F07F
:10124000C90163E070E0DBD4EF01C80FD91F08814A
:10125000842F90E0019663E070E0D1D48E0F9F1F41
:10126000EC01088309C0C90163E070E0C8D48E0FA7
:101270009F1FEC018881868B008140E050E0642F45
:101280004017B8F44F5F5F4FEF01C40FD51F8E8931
:101290008113F5CF462F50E0802F90E0019748173B
:1012A00059073CF4EF01C40FD51F888D8F8B6F5FFA
:1012B000F1CFC90163E070E0A2D48E0F9F1FEC0153
:1012C0001882CD0163E070E09AD4DF01A80FB91F46
:1012D0008FEF11968C93119712961C9201500083F8
:1012E000DF91CF911F910F910895A0E0B0E0EAE760
:1012F000F9E0BDC4EC01D62E062F10E00E3011052A
:1013000008F061C0F801EF5EFF4F0994EE24E3940A
:10131000F12C83E0681711F0E12CF12CC7016EE18C
:1013200070E06DD48C01075D1F4F0C0F1D1FF8017D
:10133000868990E063E070E062D4800F911FFC0129
:10134000C180642FC80156DFF80180818823D9F15C
:10135000868990E063E070E052D4800F911FFC0119
:1013600081818C1135C02FC0642F8B589F4FA9D21B
:10137000823048F5FE01E80FF11DE258FF4F8FEF74
:10138000808321C0443231F48FEF9FEFFE01EF578D
:10139000FF4F17C0463231F48FEF9FEFFE01EC573D
:1013A000FF4F0FC0483231F48FEF9FEFFE01E95736
:1013B000FF4F07C04E3239F48FEF9FEFFE01E65723
:1013C000FF4F91838083D982CDB7DEB7E8E06BC44D
:1013D000EC0EFD1EF701ED58FF4F8081882329F0A8
:1013E00080E0F701EF58FF4FCBCF82E0FACFA0E0CB
:1013F000B0E0ECEFF9E038C47C01C62EB42EA22E8A
:10140000211102C072DF28C1062F10E00031110542
:1014100008F022C1F801E15EFF4F099401E010E0FD
:1014200023E0621711F000E010E0C8016EE170E007
:10143000E6D3EC01A996CE0DDF1D6B2DCE01DADED1
:101440008881863081F480E090E0FE01E80FF91F8A
:101450002681211101C09480039682319105A9F75C
:10146000692DCE01C7DEE0E0F0E021E02E0FCF01D4
:1014700063E070E0C4D38C0F9D1FDC0114968C9147
:101480008F3F29F03196E630F10579F701C0D22E71
:10149000ED2DF0E0CF01019663E070E0B0D38C0F4A
:1014A0009D1F2E89DC012C93CF0163E070E0A7D350
:1014B000FE01E80FF91FB182A282DE8A488180E036
:1014C00090E0A82F841708F0A5C09C01FE01E80F4A
:1014D000F91F878990E063E070E091D38C0F9D1F26
:1014E000FC015181C9010196B51658F7842FFE0100
:1014F000A81730F4E80FF11D9689978B8150F7CF2C
:10150000E20FF31F8AC0642F8B589F4F96D1E80ECD
:10151000F11CF701E057FF4F8081882359F0F70154
:10152000ED58FF4F8081811105C082E0F701EF582F
:10153000FF4F8083F701E258FF4FB0828DC024E255
:10154000421304C0FC01E058FF4F14C086E2481368
:1015500004C0F701ED57FF4F0DC0A8E24A1304C0C5
:10156000F701EA57FF4F06C0BEE24B1375C0F70103
:10157000E757FF4F12821182A0826EC0D12CEEE09D
:10158000CE1AD108C60163E170E039D3E701C80F74
:10159000D91F259609E210E041E0400F8B2D90E025
:1015A0008017910759F4D70198964C9388819981B7
:1015B00001978115B0E19B0794F00FC098012E5F51
:1015C0003F4F82179307D1F4F70140A78881998193
:1015D00001968115F0E19F0714F08FEF9FE097FFD0
:1015E00002C080E090E099838883C60163E170E0E7
:1015F00006D302968E0D9F1D24D805C0B41203C0D9
:10160000D7019896BC920A5F1F4F229609351105A3
:1016100019F622C0FE01E40FF11DD78A4F5F4883FF
:10162000F1E0CF1203C081E090E001C0C8018E0D4F
:101630009F1DFC01E057FF4F8081882369F0E00E79
:10164000F11EF701ED58FF4F8081811105C0F701B0
:10165000EF58FF4F82E08083CDB7DEB7EBE020C3C9
:10166000AF92BF92DF92EF92FF920F931F93CF93AF
:10167000DF931F92CDB7DEB78C01E62ED42EA62EB7
:10168000B72E8D2D8E0D8A1509F44AC0F5012081E3
:101690002F7061812F30D9F16F70F62EF8018181A2
:1016A000681779F0823021F4F3E06F1306C009C0A7
:1016B000833019F482E0681721F0C80129831EDD08
:1016C00029812930A1F040F4283019F5F501428133
:1016D0006F2DC8010ADE11C02B3091F02E30C9F4F5
:1016E000F501238142816F2DC80176DC06C0F5012A
:1016F000238142816F2DC8017ADEF801F18209C091
:10170000F501238142816F2DC8017FDCF6CFC8012E
:1017100002DCF4E0AF0EB11C81E0F8018083B1CFB0
:101720000F90DF91CF911F910F91FF90EF90DF907D
:10173000BF90AF900895FC018381813041F485E42E
:1017400093E0909316018093150182E1089580EE55
:1017500092E0909316018093150185E608958FEF2E
:101760000895FC0110821182128213821482158264
:10177000168287E0089581E00895462FBC0180918C
:10178000F8009091F9006CDF08959093F900809330
:10179000F800D298DA982FEF84E39CE02150804043
:1017A0009040E1F700C00000D29ADA9AEAD178942A
:1017B00008959DD0809106010895FC011082118248
:1017C000128213820895CF93DF93EC01F6DF83E05A
:1017D0008C8382E08D8381E08E831F82DF91CF91A5
:1017E0000895FC017085A82FFC018E2F8A1B871796
:1017F00048F441914F7750E0262F30E042175307CD
:10180000A1F701C08FEF089520E030E043E0FC0134
:10181000E20FF31F5781561739F0FC01E40FF11D59
:1018200047FDFA9554834150215031092C3F5FEF19
:10183000350769F7FC0164830895FF920F931F93A6
:10184000CF93DF93EC01F62E08850023A9F1C9DFC1
:10185000182F8F3F31F520E030E0FE01E20FF31F3B
:101860008481801730F4FE01E80FF11D908197FF0D
:10187000182F2F5F3F4F2430310579F7812F1F3FFD
:1018800081F420E030E0FE01E20FF31F1481101715
:1018900008F0182F2F5F3F4F2430310511F0812FB2
:1018A000F2CFFE01E10FF11D8F2D80688083612F43
:1018B000CE01AADF812F01C08FEFCDB7DEB7E5E003
:1018C000F5C11F93CF93DF93EC018BDF182F8F3F70
:1018D00049F0FE01E80FF11D80818F778083612F31
:1018E000CE0192DF812FDF91CF911F910895CF9389
:1018F000DF9360911701635067FDD4C0809114019C
:10190000CCE0D0E0C81BD109C55EDE4F8091130149
:10191000803118F4CE0131DFC3C08D3209F0B1C07F
:10192000683009F0BDC083EC8093FB008AE58093AA
:1019300061001092FA003881832F807619F0CE0171
:101940000EDF8CC09A812C81109204018981811153
:1019500013C03F71323051F4213841F490910601A7
:1019600081E09E3109F080E080930401109205012E
:1019700024E031E082E06EC0382F3D7F313081F4C9
:10198000911165C0213809F062C0813011F48AE5F7
:1019900001C08EE1809306018BE48093070157C05C
:1019A000853019F49093180152C08630B9F58B81B7
:1019B000813011F0823019F4CE01BDDE2BC08330AE
:1019C00041F5911108C08DE993E090931601809341
:1019D000150184E01FC0913041F487E793E09093B4
:1019E00016018093150186E215C0923041F48BE612
:1019F00093E090931601809315018CE00BC0933017
:101A000041F487E593E0909316018093150184E1FA
:101A100001C080E090E49093FA0020C0883081F00B
:101A2000893019F490931A0107C08A3061F08B3025
:101A300071F48BE4809307018AE58093060107C067
:101A40002AE131E002C024E031E081E003C024E07B
:101A500031E080E030931601209315018F3F39F477
:101A6000988197FD8E8190E89093FA0007C09F813E
:101A7000911104C09E81981708F4892F809360000B
:101A80000FC08091FA0087FF0BC0CE0174DE8F3F3C
:101A900021F48EE18093610003C0811110926000F7
:101AA000109217018091610084FF5BC080916000FB
:101AB0008F3F09F456C0C82F893008F0C8E08C1B4E
:101AC000809360008091FB0098E889278093FB0059
:101AD000CC23B1F18091FA0087FF08C06C2F8CEF06
:101AE00090E03FDEC82F8930B0F52AC02091150163
:101AF000309116014CEF50E086FF10C0DA01EBEF99
:101B0000F0E0E095F095E20FF31FEA0FFB1FE49180
:101B1000ED938C2F840F8A13F2CF08C0FA01D901FC
:101B20008D9181938C2F840F8E13FACF2F5F3F4FAF
:101B30008FEF8C0F280F311D309316012093150164
:101B40006C2F8CEF90E05ED4CC5FCC3041F08FEF07
:101B50008093600004C08FEF80936000CEE1C0935B
:101B6000610084E199B3937049F48150D9F71092E0
:101B70001801109212018AE580930601DF91CF913E
:101B8000089585B7826085BF8BB780648BBF8BE477
:101B9000809307018AE5809306010895F894C2C0F6
:101BA000FB01DC0102C005900D9241505040D8F776
:101BB0000895A8E1B0E042E050E005C012D0272F20
:101BC00011C0DC01CB01FC01E199FECF06C0FFBBD7
:101BD000EEBBE09A31960DB20D9241505040B8F7ED
:101BE0000895262FE199FECF1CBA9FBB8EBB2DBB5B
:101BF0000FB6F894E29AE19A0FBE01960895002478
:101C0000552704C0080E591F880F991F009729F007
:101C100076956795B8F37105B9F7802D952F0895DE
:101C200068940010E894A0E0B0E0E8E1FEE01DC098
:101C3000EFEFE7F959016A015E23550FEE08FE2C1C
:101C400087019B01AC019E23990F660B762FCB0178
:101C50003BD0CDB7DEB7EAE024C02F923F924F923F
:101C60005F926F927F928F929F92AF92BF92CF922C
:101C7000DF92EF92FF920F931F93CF93DF93CDB735
:101C8000DEB7CA1BDB0B0FB6F894DEBF0FBECDBFAD
:101C900009942A88398848885F846E847D848C847E
:101CA0009B84AA84B984C884DF80EE80FD800C8187
:101CB0001B81AA81B981CE0FD11D0FB6F894DEBF6A
:101CC0000FBECDBFED010895DF93CF939F92A0E4A7
:101CD0009A2E0024D001E001F00116950795F794A3
:101CE000E794D794C794B794A79448F41068A20FC8
:101CF000B31FC41FD51FE61FF71F081E191E220F92
:101D0000331F441F551F661F771F881F991F9A9402
:101D100021F79D01AE01BF01C00111249F90CF9119
:081D2000DF910895F894FFCF54
:021D2800FF5A60
:00000001FF
